{
  "contractName": "FRR",
  "abi": [
    {
      "inputs": [],
      "stateMutability": "nonpayable",
      "type": "constructor"
    },
    {
      "anonymous": false,
      "inputs": [
        {
          "indexed": true,
          "internalType": "address",
          "name": "owner",
          "type": "address"
        },
        {
          "indexed": true,
          "internalType": "address",
          "name": "spender",
          "type": "address"
        },
        {
          "indexed": false,
          "internalType": "uint256",
          "name": "value",
          "type": "uint256"
        }
      ],
      "name": "Approval",
      "type": "event"
    },
    {
      "anonymous": false,
      "inputs": [
        {
          "indexed": true,
          "internalType": "address",
          "name": "holder",
          "type": "address"
        }
      ],
      "name": "Freeze",
      "type": "event"
    },
    {
      "anonymous": false,
      "inputs": [
        {
          "indexed": true,
          "internalType": "address",
          "name": "holder",
          "type": "address"
        },
        {
          "indexed": false,
          "internalType": "uint256",
          "name": "value",
          "type": "uint256"
        },
        {
          "indexed": false,
          "internalType": "uint256",
          "name": "releaseTime",
          "type": "uint256"
        }
      ],
      "name": "Lock",
      "type": "event"
    },
    {
      "anonymous": false,
      "inputs": [
        {
          "indexed": true,
          "internalType": "address",
          "name": "previousOwner",
          "type": "address"
        },
        {
          "indexed": true,
          "internalType": "address",
          "name": "newOwner",
          "type": "address"
        }
      ],
      "name": "OwnershipTransferred",
      "type": "event"
    },
    {
      "anonymous": false,
      "inputs": [
        {
          "indexed": false,
          "internalType": "address",
          "name": "account",
          "type": "address"
        }
      ],
      "name": "Paused",
      "type": "event"
    },
    {
      "anonymous": false,
      "inputs": [
        {
          "indexed": true,
          "internalType": "address",
          "name": "from",
          "type": "address"
        },
        {
          "indexed": true,
          "internalType": "address",
          "name": "to",
          "type": "address"
        },
        {
          "indexed": false,
          "internalType": "uint256",
          "name": "value",
          "type": "uint256"
        }
      ],
      "name": "Transfer",
      "type": "event"
    },
    {
      "anonymous": false,
      "inputs": [
        {
          "indexed": true,
          "internalType": "address",
          "name": "holder",
          "type": "address"
        }
      ],
      "name": "Unfreeze",
      "type": "event"
    },
    {
      "anonymous": false,
      "inputs": [
        {
          "indexed": true,
          "internalType": "address",
          "name": "holder",
          "type": "address"
        },
        {
          "indexed": false,
          "internalType": "uint256",
          "name": "value",
          "type": "uint256"
        }
      ],
      "name": "Unlock",
      "type": "event"
    },
    {
      "anonymous": false,
      "inputs": [
        {
          "indexed": false,
          "internalType": "address",
          "name": "account",
          "type": "address"
        }
      ],
      "name": "Unpaused",
      "type": "event"
    },
    {
      "inputs": [
        {
          "internalType": "address",
          "name": "owner",
          "type": "address"
        },
        {
          "internalType": "address",
          "name": "spender",
          "type": "address"
        }
      ],
      "name": "allowance",
      "outputs": [
        {
          "internalType": "uint256",
          "name": "",
          "type": "uint256"
        }
      ],
      "stateMutability": "view",
      "type": "function"
    },
    {
      "inputs": [
        {
          "internalType": "address",
          "name": "account",
          "type": "address"
        }
      ],
      "name": "balanceOf",
      "outputs": [
        {
          "internalType": "uint256",
          "name": "",
          "type": "uint256"
        }
      ],
      "stateMutability": "view",
      "type": "function"
    },
    {
      "inputs": [
        {
          "internalType": "address",
          "name": "account",
          "type": "address"
        },
        {
          "internalType": "uint256",
          "name": "amount",
          "type": "uint256"
        }
      ],
      "name": "burnFrom",
      "outputs": [],
      "stateMutability": "nonpayable",
      "type": "function"
    },
    {
      "inputs": [],
      "name": "decimals",
      "outputs": [
        {
          "internalType": "uint8",
          "name": "",
          "type": "uint8"
        }
      ],
      "stateMutability": "view",
      "type": "function"
    },
    {
      "inputs": [
        {
          "internalType": "address",
          "name": "",
          "type": "address"
        }
      ],
      "name": "frozenAccount",
      "outputs": [
        {
          "internalType": "bool",
          "name": "",
          "type": "bool"
        }
      ],
      "stateMutability": "view",
      "type": "function"
    },
    {
      "inputs": [],
      "name": "implementation",
      "outputs": [
        {
          "internalType": "address",
          "name": "",
          "type": "address"
        }
      ],
      "stateMutability": "view",
      "type": "function"
    },
    {
      "inputs": [
        {
          "internalType": "address",
          "name": "",
          "type": "address"
        }
      ],
      "name": "isAdmin",
      "outputs": [
        {
          "internalType": "bool",
          "name": "",
          "type": "bool"
        }
      ],
      "stateMutability": "view",
      "type": "function"
    },
    {
      "inputs": [
        {
          "internalType": "address",
          "name": "",
          "type": "address"
        }
      ],
      "name": "lockedBalance",
      "outputs": [
        {
          "internalType": "uint256",
          "name": "",
          "type": "uint256"
        }
      ],
      "stateMutability": "view",
      "type": "function"
    },
    {
      "inputs": [],
      "name": "name",
      "outputs": [
        {
          "internalType": "string",
          "name": "",
          "type": "string"
        }
      ],
      "stateMutability": "view",
      "type": "function"
    },
    {
      "inputs": [],
      "name": "owner",
      "outputs": [
        {
          "internalType": "address",
          "name": "",
          "type": "address"
        }
      ],
      "stateMutability": "view",
      "type": "function"
    },
    {
      "inputs": [],
      "name": "paused",
      "outputs": [
        {
          "internalType": "bool",
          "name": "",
          "type": "bool"
        }
      ],
      "stateMutability": "view",
      "type": "function"
    },
    {
      "inputs": [],
      "name": "symbol",
      "outputs": [
        {
          "internalType": "string",
          "name": "",
          "type": "string"
        }
      ],
      "stateMutability": "view",
      "type": "function"
    },
    {
      "inputs": [
        {
          "internalType": "address",
          "name": "",
          "type": "address"
        },
        {
          "internalType": "uint256",
          "name": "",
          "type": "uint256"
        }
      ],
      "name": "timelockList",
      "outputs": [
        {
          "internalType": "uint256",
          "name": "_releaseTime",
          "type": "uint256"
        },
        {
          "internalType": "uint256",
          "name": "_amount",
          "type": "uint256"
        }
      ],
      "stateMutability": "view",
      "type": "function"
    },
    {
      "inputs": [],
      "name": "totalSupply",
      "outputs": [
        {
          "internalType": "uint256",
          "name": "",
          "type": "uint256"
        }
      ],
      "stateMutability": "view",
      "type": "function"
    },
    {
      "inputs": [
        {
          "internalType": "address",
          "name": "newOwner",
          "type": "address"
        }
      ],
      "name": "transferOwnership",
      "outputs": [],
      "stateMutability": "nonpayable",
      "type": "function"
    },
    {
      "inputs": [],
      "name": "pause",
      "outputs": [],
      "stateMutability": "nonpayable",
      "type": "function"
    },
    {
      "inputs": [],
      "name": "unpause",
      "outputs": [],
      "stateMutability": "nonpayable",
      "type": "function"
    },
    {
      "inputs": [
        {
          "internalType": "address",
          "name": "holder",
          "type": "address"
        }
      ],
      "name": "isOwner",
      "outputs": [
        {
          "internalType": "bool",
          "name": "",
          "type": "bool"
        }
      ],
      "stateMutability": "view",
      "type": "function"
    },
    {
      "inputs": [
        {
          "internalType": "address",
          "name": "account",
          "type": "address"
        }
      ],
      "name": "addAdmin",
      "outputs": [],
      "stateMutability": "nonpayable",
      "type": "function"
    },
    {
      "inputs": [],
      "name": "renounceAdmin",
      "outputs": [],
      "stateMutability": "nonpayable",
      "type": "function"
    },
    {
      "inputs": [
        {
          "internalType": "address",
          "name": "account",
          "type": "address"
        }
      ],
      "name": "removeAdmin",
      "outputs": [],
      "stateMutability": "nonpayable",
      "type": "function"
    },
    {
      "inputs": [
        {
          "internalType": "address",
          "name": "holder",
          "type": "address"
        }
      ],
      "name": "freezeAccount",
      "outputs": [
        {
          "internalType": "bool",
          "name": "",
          "type": "bool"
        }
      ],
      "stateMutability": "nonpayable",
      "type": "function"
    },
    {
      "inputs": [
        {
          "internalType": "address",
          "name": "holder",
          "type": "address"
        }
      ],
      "name": "unfreezeAccount",
      "outputs": [
        {
          "internalType": "bool",
          "name": "",
          "type": "bool"
        }
      ],
      "stateMutability": "nonpayable",
      "type": "function"
    },
    {
      "inputs": [
        {
          "internalType": "address",
          "name": "holder",
          "type": "address"
        },
        {
          "internalType": "uint256",
          "name": "value",
          "type": "uint256"
        },
        {
          "internalType": "uint256",
          "name": "releaseTime",
          "type": "uint256"
        }
      ],
      "name": "lock",
      "outputs": [
        {
          "internalType": "bool",
          "name": "",
          "type": "bool"
        }
      ],
      "stateMutability": "nonpayable",
      "type": "function"
    },
    {
      "inputs": [
        {
          "internalType": "address",
          "name": "holder",
          "type": "address"
        },
        {
          "internalType": "uint256",
          "name": "value",
          "type": "uint256"
        },
        {
          "internalType": "uint256",
          "name": "releaseTime",
          "type": "uint256"
        }
      ],
      "name": "transferWithLock",
      "outputs": [
        {
          "internalType": "bool",
          "name": "",
          "type": "bool"
        }
      ],
      "stateMutability": "nonpayable",
      "type": "function"
    },
    {
      "inputs": [
        {
          "internalType": "address",
          "name": "holder",
          "type": "address"
        },
        {
          "internalType": "uint256",
          "name": "idx",
          "type": "uint256"
        }
      ],
      "name": "unlock",
      "outputs": [
        {
          "internalType": "bool",
          "name": "",
          "type": "bool"
        }
      ],
      "stateMutability": "nonpayable",
      "type": "function"
    },
    {
      "inputs": [
        {
          "internalType": "address",
          "name": "to",
          "type": "address"
        },
        {
          "internalType": "uint256",
          "name": "value",
          "type": "uint256"
        }
      ],
      "name": "transfer",
      "outputs": [
        {
          "internalType": "bool",
          "name": "",
          "type": "bool"
        }
      ],
      "stateMutability": "nonpayable",
      "type": "function"
    },
    {
      "inputs": [
        {
          "internalType": "address",
          "name": "from",
          "type": "address"
        },
        {
          "internalType": "address",
          "name": "to",
          "type": "address"
        },
        {
          "internalType": "uint256",
          "name": "value",
          "type": "uint256"
        }
      ],
      "name": "transferFrom",
      "outputs": [
        {
          "internalType": "bool",
          "name": "",
          "type": "bool"
        }
      ],
      "stateMutability": "nonpayable",
      "type": "function"
    },
    {
      "inputs": [
        {
          "internalType": "uint256",
          "name": "amount",
          "type": "uint256"
        }
      ],
      "name": "burn",
      "outputs": [],
      "stateMutability": "nonpayable",
      "type": "function"
    },
    {
      "inputs": [
        {
          "internalType": "address",
          "name": "spender",
          "type": "address"
        },
        {
          "internalType": "uint256",
          "name": "value",
          "type": "uint256"
        }
      ],
      "name": "approve",
      "outputs": [
        {
          "internalType": "bool",
          "name": "",
          "type": "bool"
        }
      ],
      "stateMutability": "nonpayable",
      "type": "function"
    },
    {
      "inputs": [
        {
          "internalType": "address",
          "name": "spender",
          "type": "address"
        },
        {
          "internalType": "uint256",
          "name": "addedValue",
          "type": "uint256"
        }
      ],
      "name": "increaseAllowance",
      "outputs": [
        {
          "internalType": "bool",
          "name": "success",
          "type": "bool"
        }
      ],
      "stateMutability": "nonpayable",
      "type": "function"
    },
    {
      "inputs": [
        {
          "internalType": "address",
          "name": "spender",
          "type": "address"
        },
        {
          "internalType": "uint256",
          "name": "subtractedValue",
          "type": "uint256"
        }
      ],
      "name": "decreaseAllowance",
      "outputs": [
        {
          "internalType": "bool",
          "name": "success",
          "type": "bool"
        }
      ],
      "stateMutability": "nonpayable",
      "type": "function"
    }
  ],
  "bytecode": "0x60806040526000600a60006101000a81548173ffffffffffffffffffffffffffffffffffffffff021916908373ffffffffffffffffffffffffffffffffffffffff1602179055503480156200005357600080fd5b506040518060400160405280600881526020017f46726f6e74726f770000000000000000000000000000000000000000000000008152506040518060400160405280600381526020017f46525200000000000000000000000000000000000000000000000000000000008152508160039080519060200190620000d89291906200041b565b508060049080519060200190620000f19291906200041b565b5050506000600560006101000a81548160ff0219169083151502179055506200014c3362000124620001eb60201b60201c565b600a620001329190620006b0565b6064620001409190620007ed565b620001f460201b60201c565b6001600960003373ffffffffffffffffffffffffffffffffffffffff1673ffffffffffffffffffffffffffffffffffffffff16815260200190815260200160002060006101000a81548160ff02191690831515021790555033600b60006101000a81548173ffffffffffffffffffffffffffffffffffffffff021916908373ffffffffffffffffffffffffffffffffffffffff16021790555062000906565b60006012905090565b600073ffffffffffffffffffffffffffffffffffffffff168273ffffffffffffffffffffffffffffffffffffffff16141562000267576040517f08c379a00000000000000000000000000000000000000000000000000000000081526004016200025e9062000586565b60405180910390fd5b6200027b600083836200036d60201b60201c565b80600260008282546200028f9190620005f8565b92505081905550806000808473ffffffffffffffffffffffffffffffffffffffff1673ffffffffffffffffffffffffffffffffffffffff1681526020019081526020016000206000828254620002e69190620005f8565b925050819055508173ffffffffffffffffffffffffffffffffffffffff16600073ffffffffffffffffffffffffffffffffffffffff167fddf252ad1be2c89b69c2b068fc378daa952ba7f163c4a11628f55a4df523b3ef836040516200034d9190620005ca565b60405180910390a362000369600083836200038a60201b60201c565b5050565b620003858383836200038f60201b620018f41760201c565b505050565b505050565b620003a7838383620003ff60201b6200194c1760201c565b620003b76200040460201b60201c565b15620003fa576040517f08c379a0000000000000000000000000000000000000000000000000000000008152600401620003f190620005a8565b60405180910390fd5b505050565b505050565b6000600560009054906101000a900460ff16905090565b828054620004299062000865565b90600052602060002090601f0160209004810192826200044d576000855562000499565b82601f106200046857805160ff191683800117855562000499565b8280016001018555821562000499579182015b82811115620004985782518255916020019190600101906200047b565b5b509050620004a89190620004ac565b5090565b5b80821115620004c7576000816000905550600101620004ad565b5090565b6000620004da601f83620005e7565b91507f45524332303a206d696e7420746f20746865207a65726f2061646472657373006000830152602082019050919050565b60006200051c602a83620005e7565b91507f45524332305061757361626c653a20746f6b656e207472616e7366657220776860008301527f696c6520706175736564000000000000000000000000000000000000000000006020830152604082019050919050565b62000580816200084e565b82525050565b60006020820190508181036000830152620005a181620004cb565b9050919050565b60006020820190508181036000830152620005c3816200050d565b9050919050565b6000602082019050620005e1600083018462000575565b92915050565b600082825260208201905092915050565b600062000605826200084e565b915062000612836200084e565b9250827fffffffffffffffffffffffffffffffffffffffffffffffffffffffffffffffff038211156200064a57620006496200089b565b5b828201905092915050565b6000808291508390505b6001851115620006a7578086048111156200067f576200067e6200089b565b5b60018516156200068f5780820291505b80810290506200069f85620008f9565b94506200065f565b94509492505050565b6000620006bd826200084e565b9150620006ca8362000858565b9250620006f97fffffffffffffffffffffffffffffffffffffffffffffffffffffffffffffffff848462000701565b905092915050565b600082620007135760019050620007e6565b81620007235760009050620007e6565b81600181146200073c576002811462000747576200077d565b6001915050620007e6565b60ff8411156200075c576200075b6200089b565b5b8360020a9150848211156200077657620007756200089b565b5b50620007e6565b5060208310610133831016604e8410600b8410161715620007b75782820a905083811115620007b157620007b06200089b565b5b620007e6565b620007c6848484600162000655565b92509050818404811115620007e057620007df6200089b565b5b81810290505b9392505050565b6000620007fa826200084e565b915062000807836200084e565b9250817fffffffffffffffffffffffffffffffffffffffffffffffffffffffffffffffff04831182151516156200084357620008426200089b565b5b828202905092915050565b6000819050919050565b600060ff82169050919050565b600060028204905060018216806200087e57607f821691505b60208210811415620008955762000894620008ca565b5b50919050565b7f4e487b7100000000000000000000000000000000000000000000000000000000600052601160045260246000fd5b7f4e487b7100000000000000000000000000000000000000000000000000000000600052602260045260246000fd5b60008160011c9050919050565b61396580620009166000396000f3fe608060405234801561001057600080fd5b50600436106101f05760003560e01c806379cc67901161010f578063a9059cbb116100a2578063de6baccb11610071578063de6baccb146105f6578063e2ab691d14610626578063f26c159f14610656578063f2fde38b14610686576101f0565b8063a9059cbb14610535578063b414d4b614610565578063d26c4a7614610595578063dd62ed3e146105c6576101f0565b80638da5cb5b116100de5780638da5cb5b1461049957806395d89b41146104b75780639ae697bf146104d5578063a457c2d714610505576101f0565b806379cc6790146104395780637eee288d146104555780638456cb59146104855780638bad0c0a1461048f576101f0565b806339509351116101875780635c975abb116101565780635c975abb1461039f57806370480275146103bd57806370a08231146103d9578063788649ea14610409576101f0565b8063395093511461032b5780633f4ba83a1461035b57806342966c68146103655780635c60da1b14610381576101f0565b806323b872dd116101c357806323b872dd1461027d57806324d7806c146102ad5780632f54bf6e146102dd578063313ce5671461030d576101f0565b806306fdde03146101f5578063095ea7b3146102135780631785f53c1461024357806318160ddd1461025f575b600080fd5b6101fd6106a2565b60405161020a9190613468565b60405180910390f35b61022d60048036038101906102289190612d41565b610734565b60405161023a919061344d565b60405180910390f35b61025d60048036038101906102589190612c8d565b610790565b005b610267610845565b604051610274919061368a565b60405180910390f35b61029760048036038101906102929190612cf2565b61084f565b6040516102a4919061344d565b60405180910390f35b6102c760048036038101906102c29190612c8d565b6109bb565b6040516102d4919061344d565b60405180910390f35b6102f760048036038101906102f29190612c8d565b6109db565b604051610304919061344d565b60405180910390f35b610315610a35565b60405161032291906136ce565b60405180910390f35b61034560048036038101906103409190612d41565b610a3e565b604051610352919061344d565b60405180910390f35b610363610a9a565b005b61037f600480360381019061037a9190612dcc565b610b51565b005b610389610b65565b6040516103969190613432565b60405180910390f35b6103a7610b8b565b6040516103b4919061344d565b60405180910390f35b6103d760048036038101906103d29190612c8d565b610ba2565b005b6103f360048036038101906103ee9190612c8d565b610c63565b604051610400919061368a565b60405180910390f35b610423600480360381019061041e9190612c8d565b610cab565b604051610430919061344d565b60405180910390f35b610453600480360381019061044e9190612d41565b610e0d565b005b61046f600480360381019061046a9190612d41565b610e88565b60405161047c919061344d565b60405180910390f35b61048d610f89565b005b610497611041565b005b6104a161109b565b6040516104ae9190613432565b60405180910390f35b6104bf6110c1565b6040516104cc9190613468565b60405180910390f35b6104ef60048036038101906104ea9190612c8d565b611153565b6040516104fc919061368a565b60405180910390f35b61051f600480360381019061051a9190612d41565b61116b565b60405161052c919061344d565b60405180910390f35b61054f600480360381019061054a9190612d41565b6111c7565b60405161055c919061344d565b60405180910390f35b61057f600480360381019061057a9190612c8d565b611331565b60405161058c919061344d565b60405180910390f35b6105af60048036038101906105aa9190612d41565b611351565b6040516105bd9291906136a5565b60405180910390f35b6105e060048036038101906105db9190612cb6565b611392565b6040516105ed919061368a565b60405180910390f35b610610600480360381019061060b9190612d7d565b611419565b60405161061d919061344d565b60405180910390f35b610640600480360381019061063b9190612d7d565b6114e6565b60405161064d919061344d565b60405180910390f35b610670600480360381019061066b9190612c8d565b61163d565b60405161067d919061344d565b60405180910390f35b6106a0600480360381019061069b9190612c8d565b6117a0565b005b6060600380546106b190613817565b80601f01602080910402602001604051908101604052809291908181526020018280546106dd90613817565b801561072a5780601f106106ff5761010080835404028352916020019161072a565b820191906000526020600020905b81548152906001019060200180831161070d57829003601f168201915b5050505050905090565b600061073e610b8b565b1561077e576040517f08c379a00000000000000000000000000000000000000000000000000000000081526004016107759061354a565b60405180910390fd5b6107888383611951565b905092915050565b600b60009054906101000a900473ffffffffffffffffffffffffffffffffffffffff1673ffffffffffffffffffffffffffffffffffffffff163373ffffffffffffffffffffffffffffffffffffffff16146107ea57600080fd5b6000600960008373ffffffffffffffffffffffffffffffffffffffff1673ffffffffffffffffffffffffffffffffffffffff16815260200190815260200160002060006101000a81548160ff02191690831515021790555050565b6000600254905090565b600083600860008273ffffffffffffffffffffffffffffffffffffffff1673ffffffffffffffffffffffffffffffffffffffff16815260200190815260200160002060009054906101000a900460ff16156108a957600080fd5b6108b1610b8b565b156108f1576040517f08c379a00000000000000000000000000000000000000000000000000000000081526004016108e89061354a565b60405180910390fd5b6000600660008773ffffffffffffffffffffffffffffffffffffffff1673ffffffffffffffffffffffffffffffffffffffff168152602001908152602001600020805490501115610947576109458561196f565b505b82600760003373ffffffffffffffffffffffffffffffffffffffff1673ffffffffffffffffffffffffffffffffffffffff1681526020019081526020016000205461099133610c63565b61099b919061375b565b10156109a657600080fd5b6109b1858585611a8d565b9150509392505050565b60096020528060005260406000206000915054906101000a900460ff1681565b60008173ffffffffffffffffffffffffffffffffffffffff16600b60009054906101000a900473ffffffffffffffffffffffffffffffffffffffff1673ffffffffffffffffffffffffffffffffffffffff16149050919050565b60006012905090565b6000610a48610b8b565b15610a88576040517f08c379a0000000000000000000000000000000000000000000000000000000008152600401610a7f9061354a565b60405180910390fd5b610a928383611b85565b905092915050565b600960003373ffffffffffffffffffffffffffffffffffffffff1673ffffffffffffffffffffffffffffffffffffffff16815260200190815260200160002060009054906101000a900460ff1680610af75750610af6336109db565b5b610b0057600080fd5b610b08610b8b565b610b47576040517f08c379a0000000000000000000000000000000000000000000000000000000008152600401610b3e906134aa565b60405180910390fd5b610b4f611c31565b565b610b62610b5c611cd3565b82611cdb565b50565b600a60009054906101000a900473ffffffffffffffffffffffffffffffffffffffff1681565b6000600560009054906101000a900460ff16905090565b600960003373ffffffffffffffffffffffffffffffffffffffff1673ffffffffffffffffffffffffffffffffffffffff16815260200190815260200160002060009054906101000a900460ff1680610bff5750610bfe336109db565b5b610c0857600080fd5b6001600960008373ffffffffffffffffffffffffffffffffffffffff1673ffffffffffffffffffffffffffffffffffffffff16815260200190815260200160002060006101000a81548160ff02191690831515021790555050565b60008060008373ffffffffffffffffffffffffffffffffffffffff1673ffffffffffffffffffffffffffffffffffffffff168152602001908152602001600020549050919050565b6000600960003373ffffffffffffffffffffffffffffffffffffffff1673ffffffffffffffffffffffffffffffffffffffff16815260200190815260200160002060009054906101000a900460ff1680610d0a5750610d09336109db565b5b610d1357600080fd5b600860008373ffffffffffffffffffffffffffffffffffffffff1673ffffffffffffffffffffffffffffffffffffffff16815260200190815260200160002060009054906101000a900460ff16610d6957600080fd5b6000600860008473ffffffffffffffffffffffffffffffffffffffff1673ffffffffffffffffffffffffffffffffffffffff16815260200190815260200160002060006101000a81548160ff0219169083151502179055508173ffffffffffffffffffffffffffffffffffffffff167fca5069937e68fd197927055037f59d7c90bf75ac104e6e375539ef480c3ad6ee60405160405180910390a260019050919050565b6000610e2083610e1b611cd3565b611392565b905081811015610e65576040517f08c379a0000000000000000000000000000000000000000000000000000000008152600401610e5c906135aa565b60405180910390fd5b610e7983610e71611cd3565b848403611eb2565b610e838383611cdb565b505050565b6000600960003373ffffffffffffffffffffffffffffffffffffffff1673ffffffffffffffffffffffffffffffffffffffff16815260200190815260200160002060009054906101000a900460ff1680610ee75750610ee6336109db565b5b610ef057600080fd5b81600660008573ffffffffffffffffffffffffffffffffffffffff1673ffffffffffffffffffffffffffffffffffffffff1681526020019081526020016000208054905011610f74576040517f08c379a0000000000000000000000000000000000000000000000000000000008152600401610f6b9061350a565b60405180910390fd5b610f7e838361207d565b506001905092915050565b600960003373ffffffffffffffffffffffffffffffffffffffff1673ffffffffffffffffffffffffffffffffffffffff16815260200190815260200160002060009054906101000a900460ff1680610fe65750610fe5336109db565b5b610fef57600080fd5b610ff7610b8b565b15611037576040517f08c379a000000000000000000000000000000000000000000000000000000000815260040161102e9061354a565b60405180910390fd5b61103f612599565b565b6000600960003373ffffffffffffffffffffffffffffffffffffffff1673ffffffffffffffffffffffffffffffffffffffff16815260200190815260200160002060006101000a81548160ff021916908315150217905550565b600b60009054906101000a900473ffffffffffffffffffffffffffffffffffffffff1681565b6060600480546110d090613817565b80601f01602080910402602001604051908101604052809291908181526020018280546110fc90613817565b80156111495780601f1061111e57610100808354040283529160200191611149565b820191906000526020600020905b81548152906001019060200180831161112c57829003601f168201915b5050505050905090565b60076020528060005260406000206000915090505481565b6000611175610b8b565b156111b5576040517f08c379a00000000000000000000000000000000000000000000000000000000081526004016111ac9061354a565b60405180910390fd5b6111bf838361263c565b905092915050565b600033600860008273ffffffffffffffffffffffffffffffffffffffff1673ffffffffffffffffffffffffffffffffffffffff16815260200190815260200160002060009054906101000a900460ff161561122157600080fd5b611229610b8b565b15611269576040517f08c379a00000000000000000000000000000000000000000000000000000000081526004016112609061354a565b60405180910390fd5b6000600660003373ffffffffffffffffffffffffffffffffffffffff1673ffffffffffffffffffffffffffffffffffffffff1681526020019081526020016000208054905011156112bf576112bd3361196f565b505b82600760003373ffffffffffffffffffffffffffffffffffffffff1673ffffffffffffffffffffffffffffffffffffffff1681526020019081526020016000205461130933610c63565b611313919061375b565b101561131e57600080fd5b6113288484612727565b91505092915050565b60086020528060005260406000206000915054906101000a900460ff1681565b6006602052816000526040600020818154811061136d57600080fd5b9060005260206000209060020201600091509150508060000154908060010154905082565b6000600160008473ffffffffffffffffffffffffffffffffffffffff1673ffffffffffffffffffffffffffffffffffffffff16815260200190815260200160002060008373ffffffffffffffffffffffffffffffffffffffff1673ffffffffffffffffffffffffffffffffffffffff16815260200190815260200160002054905092915050565b6000600960003373ffffffffffffffffffffffffffffffffffffffff1673ffffffffffffffffffffffffffffffffffffffff16815260200190815260200160002060009054906101000a900460ff16806114785750611477336109db565b5b61148157600080fd5b428210156114c4576040517f08c379a00000000000000000000000000000000000000000000000000000000081526004016114bb9061362a565b60405180910390fd5b6114cf338585612745565b6114da8484846129c6565b50600190509392505050565b6000600960003373ffffffffffffffffffffffffffffffffffffffff1673ffffffffffffffffffffffffffffffffffffffff16815260200190815260200160002060009054906101000a900460ff16806115455750611544336109db565b5b61154e57600080fd5b82600760008673ffffffffffffffffffffffffffffffffffffffff1673ffffffffffffffffffffffffffffffffffffffff1681526020019081526020016000205461159886610c63565b6115a2919061375b565b10156115e3576040517f08c379a00000000000000000000000000000000000000000000000000000000081526004016115da9061356a565b60405180910390fd5b42821015611626576040517f08c379a000000000000000000000000000000000000000000000000000000000815260040161161d9061362a565b60405180910390fd5b6116318484846129c6565b50600190509392505050565b6000600960003373ffffffffffffffffffffffffffffffffffffffff1673ffffffffffffffffffffffffffffffffffffffff16815260200190815260200160002060009054906101000a900460ff168061169c575061169b336109db565b5b6116a557600080fd5b600860008373ffffffffffffffffffffffffffffffffffffffff1673ffffffffffffffffffffffffffffffffffffffff16815260200190815260200160002060009054906101000a900460ff16156116fc57600080fd5b6001600860008473ffffffffffffffffffffffffffffffffffffffff1673ffffffffffffffffffffffffffffffffffffffff16815260200190815260200160002060006101000a81548160ff0219169083151502179055508173ffffffffffffffffffffffffffffffffffffffff167faf85b60d26151edd11443b704d424da6c43d0468f2235ebae3d1904dbc32304960405160405180910390a260019050919050565b600b60009054906101000a900473ffffffffffffffffffffffffffffffffffffffff1673ffffffffffffffffffffffffffffffffffffffff163373ffffffffffffffffffffffffffffffffffffffff16146117fa57600080fd5b600073ffffffffffffffffffffffffffffffffffffffff168173ffffffffffffffffffffffffffffffffffffffff16141561183457600080fd5b8073ffffffffffffffffffffffffffffffffffffffff16600b60009054906101000a900473ffffffffffffffffffffffffffffffffffffffff1673ffffffffffffffffffffffffffffffffffffffff167f8be0079c531659141344cd1fd0a4f28419497f9722a3daafe3b4186f6b6457e060405160405180910390a380600b60006101000a81548173ffffffffffffffffffffffffffffffffffffffff021916908373ffffffffffffffffffffffffffffffffffffffff16021790555050565b6118ff83838361194c565b611907610b8b565b15611947576040517f08c379a000000000000000000000000000000000000000000000000000000000815260040161193e9061366a565b60405180910390fd5b505050565b505050565b600061196561195e611cd3565b8484611eb2565b6001905092915050565b600080600090505b600660008473ffffffffffffffffffffffffffffffffffffffff1673ffffffffffffffffffffffffffffffffffffffff16815260200190815260200160002080549050811015611a835742600660008573ffffffffffffffffffffffffffffffffffffffff1673ffffffffffffffffffffffffffffffffffffffff1681526020019081526020016000208281548110611a39577f4e487b7100000000000000000000000000000000000000000000000000000000600052603260045260246000fd5b90600052602060002090600202016000015411611a7057611a5a838261207d565b15611a6f57600181611a6c919061375b565b90505b5b8080611a7b90613849565b915050611977565b5060019050919050565b6000611a9a848484612745565b6000600160008673ffffffffffffffffffffffffffffffffffffffff1673ffffffffffffffffffffffffffffffffffffffff1681526020019081526020016000206000611ae5611cd3565b73ffffffffffffffffffffffffffffffffffffffff1673ffffffffffffffffffffffffffffffffffffffff16815260200190815260200160002054905082811015611b65576040517f08c379a0000000000000000000000000000000000000000000000000000000008152600401611b5c9061358a565b60405180910390fd5b611b7985611b71611cd3565b858403611eb2565b60019150509392505050565b6000611c27611b92611cd3565b848460016000611ba0611cd3565b73ffffffffffffffffffffffffffffffffffffffff1673ffffffffffffffffffffffffffffffffffffffff16815260200190815260200160002060008873ffffffffffffffffffffffffffffffffffffffff1673ffffffffffffffffffffffffffffffffffffffff16815260200190815260200160002054611c229190613705565b611eb2565b6001905092915050565b611c39610b8b565b611c78576040517f08c379a0000000000000000000000000000000000000000000000000000000008152600401611c6f906134aa565b60405180910390fd5b6000600560006101000a81548160ff0219169083151502179055507f5db9ee0a495bf2e6ff9c91a7834c1ba4fdd244a5e8aa4e537bd38aeae4b073aa611cbc611cd3565b604051611cc99190613432565b60405180910390a1565b600033905090565b600073ffffffffffffffffffffffffffffffffffffffff168273ffffffffffffffffffffffffffffffffffffffff161415611d4b576040517f08c379a0000000000000000000000000000000000000000000000000000000008152600401611d42906135ca565b60405180910390fd5b611d5782600083612bd7565b60008060008473ffffffffffffffffffffffffffffffffffffffff1673ffffffffffffffffffffffffffffffffffffffff16815260200190815260200160002054905081811015611ddd576040517f08c379a0000000000000000000000000000000000000000000000000000000008152600401611dd4906134ca565b60405180910390fd5b8181036000808573ffffffffffffffffffffffffffffffffffffffff1673ffffffffffffffffffffffffffffffffffffffff168152602001908152602001600020819055508160026000828254611e34919061375b565b92505081905550600073ffffffffffffffffffffffffffffffffffffffff168373ffffffffffffffffffffffffffffffffffffffff167fddf252ad1be2c89b69c2b068fc378daa952ba7f163c4a11628f55a4df523b3ef84604051611e99919061368a565b60405180910390a3611ead83600084612be7565b505050565b600073ffffffffffffffffffffffffffffffffffffffff168373ffffffffffffffffffffffffffffffffffffffff161415611f22576040517f08c379a0000000000000000000000000000000000000000000000000000000008152600401611f199061360a565b60405180910390fd5b600073ffffffffffffffffffffffffffffffffffffffff168273ffffffffffffffffffffffffffffffffffffffff161415611f92576040517f08c379a0000000000000000000000000000000000000000000000000000000008152600401611f89906134ea565b60405180910390fd5b80600160008573ffffffffffffffffffffffffffffffffffffffff1673ffffffffffffffffffffffffffffffffffffffff16815260200190815260200160002060008473ffffffffffffffffffffffffffffffffffffffff1673ffffffffffffffffffffffffffffffffffffffff168152602001908152602001600020819055508173ffffffffffffffffffffffffffffffffffffffff168373ffffffffffffffffffffffffffffffffffffffff167f8c5be1e5ebec7d5bd14f71427d1e84f3dd0314c0f7b2291e5b200ac8c7c3b92583604051612070919061368a565b60405180910390a3505050565b600080600660008573ffffffffffffffffffffffffffffffffffffffff1673ffffffffffffffffffffffffffffffffffffffff16815260200190815260200160002083815481106120f7577f4e487b7100000000000000000000000000000000000000000000000000000000600052603260045260246000fd5b906000526020600020906002020190506000816001015490506001600660008773ffffffffffffffffffffffffffffffffffffffff1673ffffffffffffffffffffffffffffffffffffffff16815260200190815260200160002080549050111561246757836001600660008873ffffffffffffffffffffffffffffffffffffffff1673ffffffffffffffffffffffffffffffffffffffff168152602001908152602001600020805490506121ab919061375b565b141561225457600660008673ffffffffffffffffffffffffffffffffffffffff1673ffffffffffffffffffffffffffffffffffffffff168152602001908152602001600020805480612226577f4e487b7100000000000000000000000000000000000000000000000000000000600052603160045260246000fd5b6001900381819060005260206000209060020201600080820160009055600182016000905550509055612462565b600660008673ffffffffffffffffffffffffffffffffffffffff1673ffffffffffffffffffffffffffffffffffffffff1681526020019081526020016000206001600660008873ffffffffffffffffffffffffffffffffffffffff1673ffffffffffffffffffffffffffffffffffffffff168152602001908152602001600020805490506122e2919061375b565b81548110612319577f4e487b7100000000000000000000000000000000000000000000000000000000600052603260045260246000fd5b9060005260206000209060020201600660008773ffffffffffffffffffffffffffffffffffffffff1673ffffffffffffffffffffffffffffffffffffffff168152602001908152602001600020858154811061239e577f4e487b7100000000000000000000000000000000000000000000000000000000600052603260045260246000fd5b90600052602060002090600202016000820154816000015560018201548160010155905050600660008673ffffffffffffffffffffffffffffffffffffffff1673ffffffffffffffffffffffffffffffffffffffff168152602001908152602001600020805480612438577f4e487b7100000000000000000000000000000000000000000000000000000000600052603160045260246000fd5b60019003818190600052602060002090600202016000808201600090556001820160009055505090555b6124b3565b600660008673ffffffffffffffffffffffffffffffffffffffff1673ffffffffffffffffffffffffffffffffffffffff16815260200190815260200160002060006124b29190612c18565b5b6124fc600760008773ffffffffffffffffffffffffffffffffffffffff1673ffffffffffffffffffffffffffffffffffffffff1681526020019081526020016000205482612bec565b600760008773ffffffffffffffffffffffffffffffffffffffff1673ffffffffffffffffffffffffffffffffffffffff168152602001908152602001600020819055508473ffffffffffffffffffffffffffffffffffffffff167f6381d9813cabeb57471b5a7e05078e64845ccdb563146a6911d536f24ce960f182604051612585919061368a565b60405180910390a260019250505092915050565b6125a1610b8b565b156125e1576040517f08c379a00000000000000000000000000000000000000000000000000000000081526004016125d89061354a565b60405180910390fd5b6001600560006101000a81548160ff0219169083151502179055507f62e78cea01bee320cd4e420270b5ea74000d11b0c9f74754ebdbfc544b05a258612625611cd3565b6040516126329190613432565b60405180910390a1565b6000806001600061264b611cd3565b73ffffffffffffffffffffffffffffffffffffffff1673ffffffffffffffffffffffffffffffffffffffff16815260200190815260200160002060008573ffffffffffffffffffffffffffffffffffffffff1673ffffffffffffffffffffffffffffffffffffffff16815260200190815260200160002054905082811015612708576040517f08c379a00000000000000000000000000000000000000000000000000000000081526004016126ff9061364a565b60405180910390fd5b61271c612713611cd3565b85858403611eb2565b600191505092915050565b600061273b612734611cd3565b8484612745565b6001905092915050565b600073ffffffffffffffffffffffffffffffffffffffff168373ffffffffffffffffffffffffffffffffffffffff1614156127b5576040517f08c379a00000000000000000000000000000000000000000000000000000000081526004016127ac906135ea565b60405180910390fd5b600073ffffffffffffffffffffffffffffffffffffffff168273ffffffffffffffffffffffffffffffffffffffff161415612825576040517f08c379a000000000000000000000000000000000000000000000000000000000815260040161281c9061348a565b60405180910390fd5b612830838383612bd7565b60008060008573ffffffffffffffffffffffffffffffffffffffff1673ffffffffffffffffffffffffffffffffffffffff168152602001908152602001600020549050818110156128b6576040517f08c379a00000000000000000000000000000000000000000000000000000000081526004016128ad9061352a565b60405180910390fd5b8181036000808673ffffffffffffffffffffffffffffffffffffffff1673ffffffffffffffffffffffffffffffffffffffff16815260200190815260200160002081905550816000808573ffffffffffffffffffffffffffffffffffffffff1673ffffffffffffffffffffffffffffffffffffffff16815260200190815260200160002060008282546129499190613705565b925050819055508273ffffffffffffffffffffffffffffffffffffffff168473ffffffffffffffffffffffffffffffffffffffff167fddf252ad1be2c89b69c2b068fc378daa952ba7f163c4a11628f55a4df523b3ef846040516129ad919061368a565b60405180910390a36129c0848484612be7565b50505050565b600082600760008673ffffffffffffffffffffffffffffffffffffffff1673ffffffffffffffffffffffffffffffffffffffff16815260200190815260200160002054612a1286610c63565b612a1c919061375b565b1015612a5d576040517f08c379a0000000000000000000000000000000000000000000000000000000008152600401612a549061356a565b60405180910390fd5b612aa683600760008773ffffffffffffffffffffffffffffffffffffffff1673ffffffffffffffffffffffffffffffffffffffff16815260200190815260200160002054612c02565b600760008673ffffffffffffffffffffffffffffffffffffffff1673ffffffffffffffffffffffffffffffffffffffff16815260200190815260200160002081905550600660008573ffffffffffffffffffffffffffffffffffffffff1673ffffffffffffffffffffffffffffffffffffffff1681526020019081526020016000206040518060400160405280848152602001858152509080600181540180825580915050600190039060005260206000209060020201600090919091909150600082015181600001556020820151816001015550508373ffffffffffffffffffffffffffffffffffffffff167f49eaf4942f1237055eb4cfa5f31c9dfe50d5b4ade01e021f7de8be2fbbde557b8484604051612bc49291906136a5565b60405180910390a2600190509392505050565b612be28383836118f4565b505050565b505050565b60008183612bfa919061375b565b905092915050565b60008183612c109190613705565b905092915050565b5080546000825560020290600052602060002090810190612c399190612c3c565b50565b5b80821115612c5f57600080820160009055600182016000905550600201612c3d565b5090565b600081359050612c7281613901565b92915050565b600081359050612c8781613918565b92915050565b600060208284031215612c9f57600080fd5b6000612cad84828501612c63565b91505092915050565b60008060408385031215612cc957600080fd5b6000612cd785828601612c63565b9250506020612ce885828601612c63565b9150509250929050565b600080600060608486031215612d0757600080fd5b6000612d1586828701612c63565b9350506020612d2686828701612c63565b9250506040612d3786828701612c78565b9150509250925092565b60008060408385031215612d5457600080fd5b6000612d6285828601612c63565b9250506020612d7385828601612c78565b9150509250929050565b600080600060608486031215612d9257600080fd5b6000612da086828701612c63565b9350506020612db186828701612c78565b9250506040612dc286828701612c78565b9150509250925092565b600060208284031215612dde57600080fd5b6000612dec84828501612c78565b91505092915050565b612dfe8161378f565b82525050565b612e0d816137a1565b82525050565b6000612e1e826136e9565b612e2881856136f4565b9350612e388185602086016137e4565b612e41816138f0565b840191505092915050565b6000612e596023836136f4565b91507f45524332303a207472616e7366657220746f20746865207a65726f206164647260008301527f65737300000000000000000000000000000000000000000000000000000000006020830152604082019050919050565b6000612ebf6014836136f4565b91507f5061757361626c653a206e6f74207061757365640000000000000000000000006000830152602082019050919050565b6000612eff6022836136f4565b91507f45524332303a206275726e20616d6f756e7420657863656564732062616c616e60008301527f63650000000000000000000000000000000000000000000000000000000000006020830152604082019050919050565b6000612f656022836136f4565b91507f45524332303a20617070726f766520746f20746865207a65726f20616464726560008301527f73730000000000000000000000000000000000000000000000000000000000006020830152604082019050919050565b6000612fcb6017836136f4565b91507f5468657265206973206e6f74206c6f636b20696e666f2e0000000000000000006000830152602082019050919050565b600061300b6026836136f4565b91507f45524332303a207472616e7366657220616d6f756e742065786365656473206260008301527f616c616e636500000000000000000000000000000000000000000000000000006020830152604082019050919050565b60006130716010836136f4565b91507f5061757361626c653a20706175736564000000000000000000000000000000006000830152602082019050919050565b60006130b16026836136f4565b91507f5468657265206973206e6f7420656e6f7567682062616c616e6365206f66206860008301527f6f6c6465722e00000000000000000000000000000000000000000000000000006020830152604082019050919050565b60006131176028836136f4565b91507f45524332303a207472616e7366657220616d6f756e742065786365656473206160008301527f6c6c6f77616e63650000000000000000000000000000000000000000000000006020830152604082019050919050565b600061317d6024836136f4565b91507f45524332303a206275726e20616d6f756e74206578636565647320616c6c6f7760008301527f616e6365000000000000000000000000000000000000000000000000000000006020830152604082019050919050565b60006131e36021836136f4565b91507f45524332303a206275726e2066726f6d20746865207a65726f2061646472657360008301527f73000000000000000000000000000000000000000000000000000000000000006020830152604082019050919050565b60006132496025836136f4565b91507f45524332303a207472616e736665722066726f6d20746865207a65726f20616460008301527f64726573730000000000000000000000000000000000000000000000000000006020830152604082019050919050565b60006132af6024836136f4565b91507f45524332303a20617070726f76652066726f6d20746865207a65726f2061646460008301527f72657373000000000000000000000000000000000000000000000000000000006020830152604082019050919050565b60006133156020836136f4565b91507f72656c6561736554696d6520697320706173742063757272656e742074696d656000830152602082019050919050565b60006133556025836136f4565b91507f45524332303a2064656372656173656420616c6c6f77616e63652062656c6f7760008301527f207a65726f0000000000000000000000000000000000000000000000000000006020830152604082019050919050565b60006133bb602a836136f4565b91507f45524332305061757361626c653a20746f6b656e207472616e7366657220776860008301527f696c6520706175736564000000000000000000000000000000000000000000006020830152604082019050919050565b61341d816137cd565b82525050565b61342c816137d7565b82525050565b60006020820190506134476000830184612df5565b92915050565b60006020820190506134626000830184612e04565b92915050565b600060208201905081810360008301526134828184612e13565b905092915050565b600060208201905081810360008301526134a381612e4c565b9050919050565b600060208201905081810360008301526134c381612eb2565b9050919050565b600060208201905081810360008301526134e381612ef2565b9050919050565b6000602082019050818103600083015261350381612f58565b9050919050565b6000602082019050818103600083015261352381612fbe565b9050919050565b6000602082019050818103600083015261354381612ffe565b9050919050565b6000602082019050818103600083015261356381613064565b9050919050565b60006020820190508181036000830152613583816130a4565b9050919050565b600060208201905081810360008301526135a38161310a565b9050919050565b600060208201905081810360008301526135c381613170565b9050919050565b600060208201905081810360008301526135e3816131d6565b9050919050565b600060208201905081810360008301526136038161323c565b9050919050565b60006020820190508181036000830152613623816132a2565b9050919050565b6000602082019050818103600083015261364381613308565b9050919050565b6000602082019050818103600083015261366381613348565b9050919050565b60006020820190508181036000830152613683816133ae565b9050919050565b600060208201905061369f6000830184613414565b92915050565b60006040820190506136ba6000830185613414565b6136c76020830184613414565b9392505050565b60006020820190506136e36000830184613423565b92915050565b600081519050919050565b600082825260208201905092915050565b6000613710826137cd565b915061371b836137cd565b9250827fffffffffffffffffffffffffffffffffffffffffffffffffffffffffffffffff038211156137505761374f613892565b5b828201905092915050565b6000613766826137cd565b9150613771836137cd565b92508282101561378457613783613892565b5b828203905092915050565b600061379a826137ad565b9050919050565b60008115159050919050565b600073ffffffffffffffffffffffffffffffffffffffff82169050919050565b6000819050919050565b600060ff82169050919050565b60005b838110156138025780820151818401526020810190506137e7565b83811115613811576000848401525b50505050565b6000600282049050600182168061382f57607f821691505b60208210811415613843576138426138c1565b5b50919050565b6000613854826137cd565b91507fffffffffffffffffffffffffffffffffffffffffffffffffffffffffffffffff82141561388757613886613892565b5b600182019050919050565b7f4e487b7100000000000000000000000000000000000000000000000000000000600052601160045260246000fd5b7f4e487b7100000000000000000000000000000000000000000000000000000000600052602260045260246000fd5b6000601f19601f8301169050919050565b61390a8161378f565b811461391557600080fd5b50565b613921816137cd565b811461392c57600080fd5b5056fea2646970667358221220c664b70bed0a300a64618ddc3e1ba9e62bf6379363097ac6a7e00d6aab3a673764736f6c63430008000033",
  "immutableReferences": {},
  "source": "// SPDX-License-Identifier: MIT\n\npragma solidity 0.8.0;\n\nimport \"@openzeppelin/contracts/utils/math/SafeMath.sol\";\nimport \"@openzeppelin/contracts/token/ERC20/extensions/ERC20Burnable.sol\";\nimport \"@openzeppelin/contracts/token/ERC20/extensions/ERC20Pausable.sol\";\nimport \"@openzeppelin/contracts/token/ERC20/ERC20.sol\";\n\ncontract FRR is ERC20, ERC20Pausable, ERC20Burnable {\n    using SafeMath for uint256;\n    struct LockInfo {\n        uint256 _releaseTime;\n        uint256 _amount;\n    }\n\n    mapping(address => LockInfo[]) public timelockList;\n    mapping(address => uint256) public lockedBalance;\n    mapping(address => bool) public frozenAccount;\n    mapping(address => bool) public isAdmin;\n\n    address public implementation = address(0);\n    address public owner;\n\n    event Freeze(address indexed holder);\n    event Unfreeze(address indexed holder);\n    event Lock(address indexed holder, uint256 value, uint256 releaseTime);\n    event Unlock(address indexed holder, uint256 value);\n    event OwnershipTransferred(address indexed previousOwner, address indexed newOwner);\n\n    modifier notFrozen(address _holder) {\n        require(!frozenAccount[_holder]);\n        _;\n    }\n    modifier onlyAdmin() {\n        require(isAdmin[msg.sender] || isOwner(msg.sender));\n        _;\n    }\n    modifier onlyOwner() {\n        require(msg.sender == owner);\n        _;\n    }\n\n    constructor() ERC20(\"Frontrow\", \"FRR\") {\n        //_mint(msg.sender, 10000000000 * (10 ** decimals()));\n        _mint(msg.sender, 100 * (10 ** decimals()));\n        isAdmin[msg.sender] = true;\n        owner = msg.sender;\n    }\n\n    function transferOwnership(address newOwner) public onlyOwner {\n        require(newOwner != address(0));\n        emit OwnershipTransferred(owner, newOwner);\n        owner = newOwner;\n    }\n\n    function pause() public onlyAdmin whenNotPaused {\n        _pause();\n    }\n\n    function unpause() public onlyAdmin whenPaused {\n        _unpause();\n    }\n\n    function isOwner(address holder) public view returns (bool) {\n        return owner == holder;\n    }\n\n    function addAdmin(address account) public onlyAdmin {\n        isAdmin[account] = true;\n    }\n\n    function renounceAdmin() public {\n        isAdmin[msg.sender] = false;\n    }\n\n    function removeAdmin(address account) public onlyOwner {\n        isAdmin[account] = false;\n    }\n\n    function freezeAccount(address holder) public onlyAdmin returns (bool) {\n        require(!frozenAccount[holder]);\n        frozenAccount[holder] = true;\n        emit Freeze(holder);\n        return true;\n    }\n\n    function unfreezeAccount(address holder) public onlyAdmin returns (bool) {\n        require(frozenAccount[holder]);\n        frozenAccount[holder] = false;\n        emit Unfreeze(holder);\n        return true;\n    }\n\n    function lock(address holder, uint256 value, uint256 releaseTime) public onlyAdmin returns (bool) {\n        require(balanceOf(holder) - lockedBalance[holder] >= value, \"There is not enough balance of holder.\");\n        require(releaseTime >= block.timestamp, \"releaseTime is past current time\");\n        _lock(holder, value, releaseTime);\n        return true;\n    }\n\n    function transferWithLock(address holder, uint256 value, uint256 releaseTime) public onlyAdmin returns (bool) {\n        require(releaseTime >= block.timestamp, \"releaseTime is past current time\");\n        _transfer(msg.sender, holder, value);\n        _lock(holder, value, releaseTime);\n        return true;\n    }\n\n    function unlock(address holder, uint256 idx) public onlyAdmin returns (bool) {\n        require(timelockList[holder].length > idx, \"There is not lock info.\");\n        _unlock(holder, idx);\n        return true;\n    }\n\n    function _lock(address holder, uint256 value, uint256 releaseTime) internal returns (bool) {\n        require(balanceOf(holder) - lockedBalance[holder] >= value, \"There is not enough balance of holder.\");\n        lockedBalance[holder] = SafeMath.add(value, lockedBalance[holder]);\n        timelockList[holder].push(LockInfo(releaseTime, value));\n        emit Lock(holder, value, releaseTime);\n        return true;\n    }\n\n    function _unlock(address holder, uint256 idx) internal returns (bool) {\n        LockInfo storage lockinfo = timelockList[holder][idx];\n        uint256 releaseAmount = lockinfo._amount;\n        if(timelockList[holder].length > 1){\n            if(timelockList[holder].length - 1 == idx){\n                timelockList[holder].pop();\n            }else{\n                timelockList[holder][idx] = timelockList[holder][timelockList[holder].length - 1];\n                timelockList[holder].pop();\n            }\n        }else{\n            delete timelockList[holder];\n        }\n        lockedBalance[holder] = SafeMath.sub(lockedBalance[holder], releaseAmount);\n        emit Unlock(holder, releaseAmount);\n        return true;\n    }\n\n    function _autoUnlock(address holder) internal returns (bool) {\n        for (uint256 idx = 0; idx < timelockList[holder].length; idx++) {\n            if (timelockList[holder][idx]._releaseTime <= block.timestamp) {\n                if (_unlock(holder, idx)) {\n                    idx -= 1;\n                }\n            }\n        }\n        return true;\n    }\n\n    function transfer(address to, uint256 value) public notFrozen(msg.sender) whenNotPaused override returns (bool) {\n        if (timelockList[msg.sender].length > 0) {\n            _autoUnlock(msg.sender);\n        }\n        require(balanceOf(msg.sender) - lockedBalance[msg.sender] >= value);\n        return super.transfer(to, value);\n    }\n\n    function transferFrom(address from, address to, uint256 value) public notFrozen(from) whenNotPaused override returns (bool) {\n        if (timelockList[from].length > 0) {\n            _autoUnlock(from);\n        }\n        require(balanceOf(msg.sender) - lockedBalance[msg.sender] >= value);\n        return super.transferFrom(from, to, value);\n    }\n\n    function _beforeTokenTransfer(address from, address to, uint256 amount) internal virtual override(ERC20, ERC20Pausable) {\n        super._beforeTokenTransfer(from, to, amount);\n    }\n\n    function burn(uint256 amount) public override {\n        _burn(_msgSender(), amount);\n    }\n\n    function approve(address spender, uint256 value) public whenNotPaused override returns (bool) {\n        return super.approve(spender, value);\n    }\n\n    function increaseAllowance(address spender, uint addedValue) public whenNotPaused override returns (bool success) {\n        return super.increaseAllowance(spender, addedValue);\n    }\n\n    function decreaseAllowance(address spender, uint subtractedValue) public whenNotPaused override returns (bool success) {\n        return super.decreaseAllowance(spender, subtractedValue);\n    }\n}\n",
  "sourcePath": "/Users/gimgiyeong/projects/erc20_FRR/contracts/FRR.sol",
  "compiler": {
    "name": "solc",
    "version": "0.8.0+commit.c7dfd78e.Emscripten.clang"
  },
  "schemaVersion": "3.4.3",
  "updatedAt": "2021-11-19T09:09:38.518Z",
  "devdoc": {
    "kind": "dev",
    "methods": {
      "allowance(address,address)": {
        "details": "See {IERC20-allowance}."
      },
      "balanceOf(address)": {
        "details": "See {IERC20-balanceOf}."
      },
      "burn(uint256)": {
        "details": "Destroys `amount` tokens from the caller. See {ERC20-_burn}."
      },
      "burnFrom(address,uint256)": {
        "details": "Destroys `amount` tokens from `account`, deducting from the caller's allowance. See {ERC20-_burn} and {ERC20-allowance}. Requirements: - the caller must have allowance for ``accounts``'s tokens of at least `amount`."
      },
      "decimals()": {
        "details": "Returns the number of decimals used to get its user representation. For example, if `decimals` equals `2`, a balance of `505` tokens should be displayed to a user as `5.05` (`505 / 10 ** 2`). Tokens usually opt for a value of 18, imitating the relationship between Ether and Wei. This is the value {ERC20} uses, unless this function is overridden; NOTE: This information is only used for _display_ purposes: it in no way affects any of the arithmetic of the contract, including {IERC20-balanceOf} and {IERC20-transfer}."
      },
      "decreaseAllowance(address,uint256)": {
        "details": "Atomically decreases the allowance granted to `spender` by the caller. This is an alternative to {approve} that can be used as a mitigation for problems described in {IERC20-approve}. Emits an {Approval} event indicating the updated allowance. Requirements: - `spender` cannot be the zero address. - `spender` must have allowance for the caller of at least `subtractedValue`."
      },
      "increaseAllowance(address,uint256)": {
        "details": "Atomically increases the allowance granted to `spender` by the caller. This is an alternative to {approve} that can be used as a mitigation for problems described in {IERC20-approve}. Emits an {Approval} event indicating the updated allowance. Requirements: - `spender` cannot be the zero address."
      },
      "name()": {
        "details": "Returns the name of the token."
      },
      "paused()": {
        "details": "Returns true if the contract is paused, and false otherwise."
      },
      "symbol()": {
        "details": "Returns the symbol of the token, usually a shorter version of the name."
      },
      "totalSupply()": {
        "details": "See {IERC20-totalSupply}."
      }
    },
    "version": 1
  },
  "userdoc": {
    "kind": "user",
    "methods": {},
    "version": 1
  }
}